{
  "contractName": "LctPrice",
  "abi": [
    {
      "inputs": [],
      "name": "ltcPriceAdmin",
      "outputs": [
        {
          "internalType": "address",
          "name": "",
          "type": "address"
        }
      ],
      "stateMutability": "view",
      "type": "function",
      "constant": true
    },
    {
      "inputs": [],
      "name": "ltcPriceOwner",
      "outputs": [
        {
          "internalType": "address",
          "name": "",
          "type": "address"
        }
      ],
      "stateMutability": "view",
      "type": "function",
      "constant": true
    },
    {
      "inputs": [],
      "name": "staticTokenPrice",
      "outputs": [
        {
          "internalType": "int256",
          "name": "",
          "type": "int256"
        }
      ],
      "stateMutability": "view",
      "type": "function",
      "constant": true
    },
    {
      "inputs": [],
      "name": "tokenIntegratedWithChainlink",
      "outputs": [
        {
          "internalType": "bool",
          "name": "",
          "type": "bool"
        }
      ],
      "stateMutability": "view",
      "type": "function",
      "constant": true
    },
    {
      "inputs": [
        {
          "internalType": "address",
          "name": "_aggregatorAddress",
          "type": "address"
        }
      ],
      "name": "storeConstructor",
      "outputs": [],
      "stateMutability": "nonpayable",
      "type": "function"
    },
    {
      "inputs": [
        {
          "internalType": "address",
          "name": "_adminAddr",
          "type": "address"
        }
      ],
      "name": "handleSetLtcAdmin",
      "outputs": [],
      "stateMutability": "nonpayable",
      "type": "function"
    },
    {
      "inputs": [
        {
          "internalType": "address",
          "name": "_ownerAddr",
          "type": "address"
        }
      ],
      "name": "handleSetLtcOwner",
      "outputs": [],
      "stateMutability": "nonpayable",
      "type": "function"
    },
    {
      "inputs": [
        {
          "internalType": "bool",
          "name": "_status",
          "type": "bool"
        }
      ],
      "name": "handleTokenIntegratedWithChainlink",
      "outputs": [],
      "stateMutability": "nonpayable",
      "type": "function"
    },
    {
      "inputs": [
        {
          "internalType": "address",
          "name": "_tokenAddress",
          "type": "address"
        }
      ],
      "name": "handleSetAgregatorAddress",
      "outputs": [],
      "stateMutability": "nonpayable",
      "type": "function"
    },
    {
      "inputs": [
        {
          "internalType": "int256",
          "name": "_livePrice",
          "type": "int256"
        }
      ],
      "name": "handleSetTokenPrice",
      "outputs": [
        {
          "internalType": "int256",
          "name": "",
          "type": "int256"
        }
      ],
      "stateMutability": "nonpayable",
      "type": "function"
    },
    {
      "inputs": [],
      "name": "getTokenPrice",
      "outputs": [
        {
          "internalType": "int256",
          "name": "",
          "type": "int256"
        }
      ],
      "stateMutability": "view",
      "type": "function",
      "constant": true
    }
  ],
  "bytecode": "0x608060405234801561001057600080fd5b50610d27806100206000396000f3fe608060405234801561001057600080fd5b50600436106100a95760003560e01c8063b784aa2111610071578063b784aa2114610152578063d0139bf714610170578063dd600e601461018e578063e0eb6f27146101aa578063f9588d3e146101c6578063fc931277146101e2576100a9565b80632622666b146100ae5780634b94f50e146100ca5780635ce8f8c3146100e8578063925d400c14610106578063b5863c1014610136575b600080fd5b6100c860048036038101906100c391906108a0565b610200565b005b6100d26102ad565b6040516100df9190610a12565b60405180910390f35b6100f06102e8565b6040516100fd91906109dc565b60405180910390f35b610120600480360381019061011b91906108c9565b61030e565b60405161012d9190610a12565b60405180910390f35b610150600480360381019061014b9190610877565b6103af565b005b61015a610481565b60405161016791906109dc565b60405180910390f35b6101786104a7565b6040516101859190610a12565b60405180910390f35b6101a860048036038101906101a39190610877565b6104ad565b005b6101c460048036038101906101bf9190610877565b610581565b005b6101e060048036038101906101db9190610877565b610655565b005b6101ea610728565b6040516101f791906109f7565b60405180910390f35b3373ffffffffffffffffffffffffffffffffffffffff16600260009054906101000a900473ffffffffffffffffffffffffffffffffffffffff1673ffffffffffffffffffffffffffffffffffffffff1614610290576040517f08c379a000000000000000000000000000000000000000000000000000000000815260040161028790610a4d565b60405180910390fd5b80600260146101000a81548160ff02191690831515021790555050565b60008060011515600260149054906101000a900460ff16151514156102db576102d461073b565b90506102e1565b60035490505b8091505090565b600260009054906101000a900473ffffffffffffffffffffffffffffffffffffffff1681565b6000600160009054906101000a900473ffffffffffffffffffffffffffffffffffffffff1673ffffffffffffffffffffffffffffffffffffffff163373ffffffffffffffffffffffffffffffffffffffff16146103a0576040517f08c379a000000000000000000000000000000000000000000000000000000000815260040161039790610a2d565b60405180910390fd5b81600381905550819050919050565b806000806101000a81548173ffffffffffffffffffffffffffffffffffffffff021916908373ffffffffffffffffffffffffffffffffffffffff16021790555033600160006101000a81548173ffffffffffffffffffffffffffffffffffffffff021916908373ffffffffffffffffffffffffffffffffffffffff16021790555033600260006101000a81548173ffffffffffffffffffffffffffffffffffffffff021916908373ffffffffffffffffffffffffffffffffffffffff160217905550652a1766f5d00060038190555050565b600160009054906101000a900473ffffffffffffffffffffffffffffffffffffffff1681565b60035481565b3373ffffffffffffffffffffffffffffffffffffffff16600260009054906101000a900473ffffffffffffffffffffffffffffffffffffffff1673ffffffffffffffffffffffffffffffffffffffff161461053d576040517f08c379a000000000000000000000000000000000000000000000000000000000815260040161053490610a4d565b60405180910390fd5b80600160006101000a81548173ffffffffffffffffffffffffffffffffffffffff021916908373ffffffffffffffffffffffffffffffffffffffff16021790555050565b3373ffffffffffffffffffffffffffffffffffffffff16600260009054906101000a900473ffffffffffffffffffffffffffffffffffffffff1673ffffffffffffffffffffffffffffffffffffffff1614610611576040517f08c379a000000000000000000000000000000000000000000000000000000000815260040161060890610a4d565b60405180910390fd5b80600260006101000a81548173ffffffffffffffffffffffffffffffffffffffff021916908373ffffffffffffffffffffffffffffffffffffffff16021790555050565b3373ffffffffffffffffffffffffffffffffffffffff16600260009054906101000a900473ffffffffffffffffffffffffffffffffffffffff1673ffffffffffffffffffffffffffffffffffffffff16146106e5576040517f08c379a00000000000000000000000000000000000000000000000000000000081526004016106dc90610a4d565b60405180910390fd5b806000806101000a81548173ffffffffffffffffffffffffffffffffffffffff021916908373ffffffffffffffffffffffffffffffffffffffff16021790555050565b600260149054906101000a900460ff1681565b60008060008054906101000a900473ffffffffffffffffffffffffffffffffffffffff1673ffffffffffffffffffffffffffffffffffffffff1663feaf968c6040518163ffffffff1660e01b815260040160a06040518083038186803b1580156107a457600080fd5b505afa1580156107b8573d6000803e3d6000fd5b505050506040513d601f19601f820116820180604052508101906107dc91906108f2565b5050509150506402540be400816107f39190610a7e565b91505090565b60008135905061080881610c7e565b92915050565b60008135905061081d81610c95565b92915050565b60008135905061083281610cac565b92915050565b60008151905061084781610cac565b92915050565b60008151905061085c81610cc3565b92915050565b60008151905061087181610cda565b92915050565b60006020828403121561088957600080fd5b6000610897848285016107f9565b91505092915050565b6000602082840312156108b257600080fd5b60006108c08482850161080e565b91505092915050565b6000602082840312156108db57600080fd5b60006108e984828501610823565b91505092915050565b600080600080600060a0868803121561090a57600080fd5b600061091888828901610862565b955050602061092988828901610838565b945050604061093a8882890161084d565b935050606061094b8882890161084d565b925050608061095c88828901610862565b9150509295509295909350565b61097281610b95565b82525050565b61098181610ba7565b82525050565b61099081610bb3565b82525050565b60006109a3601183610a6d565b91506109ae82610c2c565b602082019050919050565b60006109c6602083610a6d565b91506109d182610c55565b602082019050919050565b60006020820190506109f16000830184610969565b92915050565b6000602082019050610a0c6000830184610978565b92915050565b6000602082019050610a276000830184610987565b92915050565b60006020820190508181036000830152610a4681610996565b9050919050565b60006020820190508181036000830152610a66816109b9565b9050919050565b600082825260208201905092915050565b6000610a8982610bb3565b9150610a9483610bb3565b9250827f7fffffffffffffffffffffffffffffffffffffffffffffffffffffffffffffff0482116000841360008413161615610ad357610ad2610bfd565b5b817f80000000000000000000000000000000000000000000000000000000000000000583126000841260008413161615610b1057610b0f610bfd565b5b827f80000000000000000000000000000000000000000000000000000000000000000582126000841360008412161615610b4d57610b4c610bfd565b5b827f7fffffffffffffffffffffffffffffffffffffffffffffffffffffffffffffff0582126000841260008412161615610b8a57610b89610bfd565b5b828202905092915050565b6000610ba082610bbd565b9050919050565b60008115159050919050565b6000819050919050565b600073ffffffffffffffffffffffffffffffffffffffff82169050919050565b6000819050919050565b600069ffffffffffffffffffff82169050919050565b7f4e487b7100000000000000000000000000000000000000000000000000000000600052601160045260246000fd5b7f596f7520617265206e6f742061646d696e000000000000000000000000000000600082015250565b7f4f776e61626c653a2063616c6c6572206973206e6f7420746865206f776e6572600082015250565b610c8781610b95565b8114610c9257600080fd5b50565b610c9e81610ba7565b8114610ca957600080fd5b50565b610cb581610bb3565b8114610cc057600080fd5b50565b610ccc81610bdd565b8114610cd757600080fd5b50565b610ce381610be7565b8114610cee57600080fd5b5056fea26469706673582212200eaddfd4ee89d3789fa07a0154d186739f61c6b492a92aa3f56fba94393a525a64736f6c63430008030033",
  "immutableReferences": {},
  "source": "// SPDX-License-Identifier: MIT\npragma solidity ^0.8.3;\n\nimport \"@chainlink/contracts/src/v0.8/interfaces/AggregatorV3Interface.sol\";\n\ncontract LctPrice {\n    AggregatorV3Interface internal priceFeed;\n    address public ltcPriceAdmin;\n    address public ltcPriceOwner;\n    bool public tokenIntegratedWithChainlink;\n    int public staticTokenPrice; // 0.00004628\n\n    modifier onlyOwner() {\n        require(\n            ltcPriceOwner == msg.sender,\n            \"Ownable: caller is not the owner\"\n        );\n        _;\n    }\n\n    function storeConstructor(address _aggregatorAddress) public {\n        priceFeed = AggregatorV3Interface(_aggregatorAddress);\n        ltcPriceAdmin = msg.sender;\n        ltcPriceOwner = msg.sender;\n        staticTokenPrice = 46280000000000; // 0.00004628\n    }\n\n    function handleSetLtcAdmin(address _adminAddr) public onlyOwner {\n        ltcPriceAdmin = _adminAddr;\n    }\n\n    function handleSetLtcOwner(address _ownerAddr) public onlyOwner {\n        ltcPriceOwner = _ownerAddr;\n    }\n\n    function handleTokenIntegratedWithChainlink(bool _status) public onlyOwner {\n        tokenIntegratedWithChainlink = _status;\n    }\n\n    /**\n     * Returns the latest price.\n     */\n\n    function handleSetAgregatorAddress(address _tokenAddress) public onlyOwner {\n        priceFeed = AggregatorV3Interface(_tokenAddress);\n    }\n\n    function getLatestPriceFromAgregator() internal view returns (int) {\n        // prettier-ignore\n        (\n            /* uint80 roundID */,\n            int price,\n            /*uint startedAt*/,\n            /*uint timeStamp*/,\n            /*uint80 answeredInRound*/\n        ) = priceFeed.latestRoundData();\n        return price * 10000000000;\n    }\n\n    function handleSetTokenPrice(int _livePrice) public returns (int) {\n        require(msg.sender == ltcPriceAdmin, \"You are not admin\");\n        staticTokenPrice = _livePrice;\n        return _livePrice;\n    }\n\n    function getTokenPrice() public view returns (int) {\n        int tokenPrice;\n        if (tokenIntegratedWithChainlink == true) {\n            tokenPrice = getLatestPriceFromAgregator();\n        } else {\n            tokenPrice = staticTokenPrice;\n        }\n        return tokenPrice;\n    }\n}\n",
  "sourcePath": "/Users/abdulrehman/Desktop/contractDeployment/LCT_TokenPrice_AbdurRehman/contracts/LctPrice.sol",
  "compiler": {
    "name": "solc",
    "version": "0.8.3+commit.8d00100c.Emscripten.clang"
  },
  "schemaVersion": "3.4.13",
  "updatedAt": "2023-05-11T10:11:11.593Z",
  "networkType": "ethereum",
  "devdoc": {
    "kind": "dev",
    "methods": {},
    "version": 1
  },
  "userdoc": {
    "kind": "user",
    "methods": {
      "handleSetAgregatorAddress(address)": {
        "notice": "Returns the latest price."
      }
    },
    "version": 1
  }
}